{"contracts/AuditChain.sol":{"AuditChain":{"abi":[{"inputs":[],"stateMutability":"nonpayable","type":"constructor"},{"anonymous":false,"inputs":[{"indexed":false,"internalType":"uint256","name":"index","type":"uint256"},{"indexed":false,"internalType":"string","name":"timestamp","type":"string"},{"indexed":false,"internalType":"uint256","name":"proof","type":"uint256"},{"indexed":false,"internalType":"string","name":"previousHash","type":"string"},{"indexed":false,"internalType":"string","name":"meta","type":"string"}],"name":"BlockAdded","type":"event"},{"inputs":[{"internalType":"uint256","name":"","type":"uint256"}],"name":"chain","outputs":[{"internalType":"uint256","name":"index","type":"uint256"},{"internalType":"string","name":"timestamp","type":"string"},{"internalType":"uint256","name":"proof","type":"uint256"},{"internalType":"string","name":"previousHash","type":"string"},{"internalType":"string","name":"meta","type":"string"}],"stateMutability":"view","type":"function"},{"inputs":[{"internalType":"string","name":"_timestamp","type":"string"},{"internalType":"uint256","name":"_proof","type":"uint256"},{"internalType":"string","name":"_previousHash","type":"string"},{"internalType":"string","name":"_meta","type":"string"}],"name":"createBlock","outputs":[],"stateMutability":"nonpayable","type":"function"},{"inputs":[{"internalType":"uint256","name":"index","type":"uint256"}],"name":"getBlock","outputs":[{"components":[{"internalType":"uint256","name":"index","type":"uint256"},{"internalType":"string","name":"timestamp","type":"string"},{"internalType":"uint256","name":"proof","type":"uint256"},{"internalType":"string","name":"previousHash","type":"string"},{"internalType":"string","name":"meta","type":"string"}],"internalType":"struct AuditChain.Block","name":"","type":"tuple"}],"stateMutability":"view","type":"function"},{"inputs":[],"name":"getChainCount","outputs":[{"internalType":"uint256","name":"","type":"uint256"}],"stateMutability":"view","type":"function"}],"evm":{"bytecode":{"linkReferences":{},"object":"60806040523480156200001157600080fd5b50620000c66040518060400160405280601381526020017f313937302d30312d30312030303a30303a30300000000000000000000000000081525060016040518060400160405280600181526020017f30000000000000000000000000000000000000000000000000000000000000008152506040518060400160405280600d81526020017f47656e6573697320426c6f636b00000000000000000000000000000000000000815250620000cc60201b60201c565b620006cd565b60006040518060a001604052806001600080549050620000ed919062000229565b81526020018681526020018581526020018481526020018381525090506000819080600181540180825580915050600190039060005260206000209060050201600090919091909150600082015181600001556020820151816001019081620001579190620004d4565b50604082015181600201556060820151816003019081620001799190620004d4565b506080820151816004019081620001919190620004d4565b5050507f09ba7d20c416838f34bcbf35fd81c63486032f3b8cf5af6261bf4ee7b64a258381600001518260200151836040015184606001518560800151604051620001e19594939291906200065b565b60405180910390a15050505050565b6000819050919050565b7f4e487b7100000000000000000000000000000000000000000000000000000000600052601160045260246000fd5b60006200023682620001f0565b91506200024383620001f0565b92508282019050808211156200025e576200025d620001fa565b5b92915050565b600081519050919050565b7f4e487b7100000000000000000000000000000000000000000000000000000000600052604160045260246000fd5b7f4e487b7100000000000000000000000000000000000000000000000000000000600052602260045260246000fd5b60006002820490506001821680620002e657607f821691505b602082108103620002fc57620002fb6200029e565b5b50919050565b60008190508160005260206000209050919050565b60006020601f8301049050919050565b600082821b905092915050565b600060088302620003667fffffffffffffffffffffffffffffffffffffffffffffffffffffffffffffffff8262000327565b62000372868362000327565b95508019841693508086168417925050509392505050565b6000819050919050565b6000620003b5620003af620003a984620001f0565b6200038a565b620001f0565b9050919050565b6000819050919050565b620003d18362000394565b620003e9620003e082620003bc565b84845462000334565b825550505050565b600090565b62000400620003f1565b6200040d818484620003c6565b505050565b5b81811015620004355762000429600082620003f6565b60018101905062000413565b5050565b601f82111562000484576200044e8162000302565b620004598462000317565b8101602085101562000469578190505b62000481620004788562000317565b83018262000412565b50505b505050565b600082821c905092915050565b6000620004a96000198460080262000489565b1980831691505092915050565b6000620004c4838362000496565b9150826002028217905092915050565b620004df8262000264565b67ffffffffffffffff811115620004fb57620004fa6200026f565b5b620005078254620002cd565b6200051482828562000439565b600060209050601f8311600181146200054c576000841562000537578287015190505b620005438582620004b6565b865550620005b3565b601f1984166200055c8662000302565b60005b8281101562000586578489015182556001820191506020850194506020810190506200055f565b86831015620005a65784890151620005a2601f89168262000496565b8355505b6001600288020188555050505b505050505050565b620005c681620001f0565b82525050565b600082825260208201905092915050565b60005b83811015620005fd578082015181840152602081019050620005e0565b60008484015250505050565b6000601f19601f8301169050919050565b6000620006278262000264565b620006338185620005cc565b935062000645818560208601620005dd565b620006508162000609565b840191505092915050565b600060a082019050620006726000830188620005bb565b81810360208301526200068681876200061a565b9050620006976040830186620005bb565b8181036060830152620006ab81856200061a565b90508181036080830152620006c181846200061a565b90509695505050505050565b610f0980620006dd6000396000f3fe608060405234801561001057600080fd5b506004361061004c5760003560e01c806304c07569146100515780635852cc0c146100815780638548ed11146100b5578063d25d23bd146100d1575b600080fd5b61006b600480360381019061006691906106b9565b6100ef565b6040516100789190610809565b60405180910390f35b61009b600480360381019061009691906106b9565b61033c565b6040516100ac959493929190610884565b60405180910390f35b6100cf60048036038101906100ca9190610a21565b61051a565b005b6100d9610634565b6040516100e69190610adc565b60405180910390f35b6100f7610640565b600080549050821061013e576040517f08c379a000000000000000000000000000000000000000000000000000000000815260040161013590610b43565b60405180910390fd5b6000828154811061015257610151610b63565b5b90600052602060002090600502016040518060a00160405290816000820154815260200160018201805461018590610bc1565b80601f01602080910402602001604051908101604052809291908181526020018280546101b190610bc1565b80156101fe5780601f106101d3576101008083540402835291602001916101fe565b820191906000526020600020905b8154815290600101906020018083116101e157829003601f168201915b505050505081526020016002820154815260200160038201805461022190610bc1565b80601f016020809104026020016040519081016040528092919081815260200182805461024d90610bc1565b801561029a5780601f1061026f5761010080835404028352916020019161029a565b820191906000526020600020905b81548152906001019060200180831161027d57829003601f168201915b505050505081526020016004820180546102b390610bc1565b80601f01602080910402602001604051908101604052809291908181526020018280546102df90610bc1565b801561032c5780601f106103015761010080835404028352916020019161032c565b820191906000526020600020905b81548152906001019060200180831161030f57829003601f168201915b5050505050815250509050919050565b6000818154811061034c57600080fd5b906000526020600020906005020160009150905080600001549080600101805461037590610bc1565b80601f01602080910402602001604051908101604052809291908181526020018280546103a190610bc1565b80156103ee5780601f106103c3576101008083540402835291602001916103ee565b820191906000526020600020905b8154815290600101906020018083116103d157829003601f168201915b50505050509080600201549080600301805461040990610bc1565b80601f016020809104026020016040519081016040528092919081815260200182805461043590610bc1565b80156104825780601f1061045757610100808354040283529160200191610482565b820191906000526020600020905b81548152906001019060200180831161046557829003601f168201915b50505050509080600401805461049790610bc1565b80601f01602080910402602001604051908101604052809291908181526020018280546104c390610bc1565b80156105105780601f106104e557610100808354040283529160200191610510565b820191906000526020600020905b8154815290600101906020018083116104f357829003601f168201915b5050505050905085565b60006040518060a0016040528060016000805490506105399190610c21565b815260200186815260200185815260200184815260200183815250905060008190806001815401808255809150506001900390600052602060002090600502016000909190919091506000820151816000015560208201518160010190816105a19190610e01565b506040820151816002015560608201518160030190816105c19190610e01565b5060808201518160040190816105d79190610e01565b5050507f09ba7d20c416838f34bcbf35fd81c63486032f3b8cf5af6261bf4ee7b64a258381600001518260200151836040015184606001518560800151604051610625959493929190610884565b60405180910390a15050505050565b60008080549050905090565b6040518060a0016040528060008152602001606081526020016000815260200160608152602001606081525090565b6000604051905090565b600080fd5b600080fd5b6000819050919050565b61069681610683565b81146106a157600080fd5b50565b6000813590506106b38161068d565b92915050565b6000602082840312156106cf576106ce610679565b5b60006106dd848285016106a4565b91505092915050565b6106ef81610683565b82525050565b600081519050919050565b600082825260208201905092915050565b60005b8381101561072f578082015181840152602081019050610714565b60008484015250505050565b6000601f19601f8301169050919050565b6000610757826106f5565b6107618185610700565b9350610771818560208601610711565b61077a8161073b565b840191505092915050565b600060a08301600083015161079d60008601826106e6565b50602083015184820360208601526107b5828261074c565b91505060408301516107ca60408601826106e6565b50606083015184820360608601526107e2828261074c565b915050608083015184820360808601526107fc828261074c565b9150508091505092915050565b600060208201905081810360008301526108238184610785565b905092915050565b61083481610683565b82525050565b600082825260208201905092915050565b6000610856826106f5565b610860818561083a565b9350610870818560208601610711565b6108798161073b565b840191505092915050565b600060a082019050610899600083018861082b565b81810360208301526108ab818761084b565b90506108ba604083018661082b565b81810360608301526108cc818561084b565b905081810360808301526108e0818461084b565b90509695505050505050565b600080fd5b600080fd5b7f4e487b7100000000000000000000000000000000000000000000000000000000600052604160045260246000fd5b61092e8261073b565b810181811067ffffffffffffffff8211171561094d5761094c6108f6565b5b80604052505050565b600061096061066f565b905061096c8282610925565b919050565b600067ffffffffffffffff82111561098c5761098b6108f6565b5b6109958261073b565b9050602081019050919050565b82818337600083830152505050565b60006109c46109bf84610971565b610956565b9050828152602081018484840111156109e0576109df6108f1565b5b6109eb8482856109a2565b509392505050565b600082601f830112610a0857610a076108ec565b5b8135610a188482602086016109b1565b91505092915050565b60008060008060808587031215610a3b57610a3a610679565b5b600085013567ffffffffffffffff811115610a5957610a5861067e565b5b610a65878288016109f3565b9450506020610a76878288016106a4565b935050604085013567ffffffffffffffff811115610a9757610a9661067e565b5b610aa3878288016109f3565b925050606085013567ffffffffffffffff811115610ac457610ac361067e565b5b610ad0878288016109f3565b91505092959194509250565b6000602082019050610af1600083018461082b565b92915050565b7f496e646578206f7574206f6620626f756e647300000000000000000000000000600082015250565b6000610b2d60138361083a565b9150610b3882610af7565b602082019050919050565b60006020820190508181036000830152610b5c81610b20565b9050919050565b7f4e487b7100000000000000000000000000000000000000000000000000000000600052603260045260246000fd5b7f4e487b7100000000000000000000000000000000000000000000000000000000600052602260045260246000fd5b60006002820490506001821680610bd957607f821691505b602082108103610bec57610beb610b92565b5b50919050565b7f4e487b7100000000000000000000000000000000000000000000000000000000600052601160045260246000fd5b6000610c2c82610683565b9150610c3783610683565b9250828201905080821115610c4f57610c4e610bf2565b5b92915050565b60008190508160005260206000209050919050565b60006020601f8301049050919050565b600082821b905092915050565b600060088302610cb77fffffffffffffffffffffffffffffffffffffffffffffffffffffffffffffffff82610c7a565b610cc18683610c7a565b95508019841693508086168417925050509392505050565b6000819050919050565b6000610cfe610cf9610cf484610683565b610cd9565b610683565b9050919050565b6000819050919050565b610d1883610ce3565b610d2c610d2482610d05565b848454610c87565b825550505050565b600090565b610d41610d34565b610d4c818484610d0f565b505050565b5b81811015610d7057610d65600082610d39565b600181019050610d52565b5050565b601f821115610db557610d8681610c55565b610d8f84610c6a565b81016020851015610d9e578190505b610db2610daa85610c6a565b830182610d51565b50505b505050565b600082821c905092915050565b6000610dd860001984600802610dba565b1980831691505092915050565b6000610df18383610dc7565b9150826002028217905092915050565b610e0a826106f5565b67ffffffffffffffff811115610e2357610e226108f6565b5b610e2d8254610bc1565b610e38828285610d74565b600060209050601f831160018114610e6b5760008415610e59578287015190505b610e638582610de5565b865550610ecb565b601f198416610e7986610c55565b60005b82811015610ea157848901518255600182019150602085019450602081019050610e7c565b86831015610ebe5784890151610eba601f891682610dc7565b8355505b6001600288020188555050505b50505050505056fea2646970667358221220d496465ee3f1a063b7e5de7bb13d3f73da7a6887881b1bcf04520392bcfe20b464736f6c63430008180033","opcodes":"PUSH1 0x80 PUSH1 0x40 MSTORE CALLVALUE DUP1 ISZERO PUSH3 0x11 JUMPI PUSH1 0x0 DUP1 REVERT JUMPDEST POP PUSH3 0xC6 PUSH1 0x40 MLOAD DUP1 PUSH1 0x40 ADD PUSH1 0x40 MSTORE DUP1 PUSH1 0x13 DUP2 MSTORE PUSH1 0x20 ADD PUSH32 0x313937302D30312D30312030303A30303A303000000000000000000000000000 DUP2 MSTORE POP PUSH1 0x1 PUSH1 0x40 MLOAD DUP1 PUSH1 0x40 ADD PUSH1 0x40 MSTORE DUP1 PUSH1 0x1 DUP2 MSTORE PUSH1 0x20 ADD PUSH32 0x3000000000000000000000000000000000000000000000000000000000000000 DUP2 MSTORE POP PUSH1 0x40 MLOAD DUP1 PUSH1 0x40 ADD PUSH1 0x40 MSTORE DUP1 PUSH1 0xD DUP2 MSTORE PUSH1 0x20 ADD PUSH32 0x47656E6573697320426C6F636B00000000000000000000000000000000000000 DUP2 MSTORE POP PUSH3 0xCC PUSH1 0x20 SHL PUSH1 0x20 SHR JUMP JUMPDEST PUSH3 0x6CD JUMP JUMPDEST PUSH1 0x0 PUSH1 0x40 MLOAD DUP1 PUSH1 0xA0 ADD PUSH1 0x40 MSTORE DUP1 PUSH1 0x1 PUSH1 0x0 DUP1 SLOAD SWAP1 POP PUSH3 0xED SWAP2 SWAP1 PUSH3 0x229 JUMP JUMPDEST DUP2 MSTORE PUSH1 0x20 ADD DUP7 DUP2 MSTORE PUSH1 0x20 ADD DUP6 DUP2 MSTORE PUSH1 0x20 ADD DUP5 DUP2 MSTORE PUSH1 0x20 ADD DUP4 DUP2 MSTORE POP SWAP1 POP PUSH1 0x0 DUP2 SWAP1 DUP1 PUSH1 0x1 DUP2 SLOAD ADD DUP1 DUP3 SSTORE DUP1 SWAP2 POP POP PUSH1 0x1 SWAP1 SUB SWAP1 PUSH1 0x0 MSTORE PUSH1 0x20 PUSH1 0x0 KECCAK256 SWAP1 PUSH1 0x5 MUL ADD PUSH1 0x0 SWAP1 SWAP2 SWAP1 SWAP2 SWAP1 SWAP2 POP PUSH1 0x0 DUP3 ADD MLOAD DUP2 PUSH1 0x0 ADD SSTORE PUSH1 0x20 DUP3 ADD MLOAD DUP2 PUSH1 0x1 ADD SWAP1 DUP2 PUSH3 0x157 SWAP2 SWAP1 PUSH3 0x4D4 JUMP JUMPDEST POP PUSH1 0x40 DUP3 ADD MLOAD DUP2 PUSH1 0x2 ADD SSTORE PUSH1 0x60 DUP3 ADD MLOAD DUP2 PUSH1 0x3 ADD SWAP1 DUP2 PUSH3 0x179 SWAP2 SWAP1 PUSH3 0x4D4 JUMP JUMPDEST POP PUSH1 0x80 DUP3 ADD MLOAD DUP2 PUSH1 0x4 ADD SWAP1 DUP2 PUSH3 0x191 SWAP2 SWAP1 PUSH3 0x4D4 JUMP JUMPDEST POP POP POP PUSH32 0x9BA7D20C416838F34BCBF35FD81C63486032F3B8CF5AF6261BF4EE7B64A2583 DUP2 PUSH1 0x0 ADD MLOAD DUP3 PUSH1 0x20 ADD MLOAD DUP4 PUSH1 0x40 ADD MLOAD DUP5 PUSH1 0x60 ADD MLOAD DUP6 PUSH1 0x80 ADD MLOAD PUSH1 0x40 MLOAD PUSH3 0x1E1 SWAP6 SWAP5 SWAP4 SWAP3 SWAP2 SWAP1 PUSH3 0x65B JUMP JUMPDEST PUSH1 0x40 MLOAD DUP1 SWAP2 SUB SWAP1 LOG1 POP POP POP POP POP JUMP JUMPDEST PUSH1 0x0 DUP2 SWAP1 POP SWAP2 SWAP1 POP JUMP JUMPDEST PUSH32 0x4E487B7100000000000000000000000000000000000000000000000000000000 PUSH1 0x0 MSTORE PUSH1 0x11 PUSH1 0x4 MSTORE PUSH1 0x24 PUSH1 0x0 REVERT JUMPDEST PUSH1 0x0 PUSH3 0x236 DUP3 PUSH3 0x1F0 JUMP JUMPDEST SWAP2 POP PUSH3 0x243 DUP4 PUSH3 0x1F0 JUMP JUMPDEST SWAP3 POP DUP3 DUP3 ADD SWAP1 POP DUP1 DUP3 GT ISZERO PUSH3 0x25E JUMPI PUSH3 0x25D PUSH3 0x1FA JUMP JUMPDEST JUMPDEST SWAP3 SWAP2 POP POP JUMP JUMPDEST PUSH1 0x0 DUP2 MLOAD SWAP1 POP SWAP2 SWAP1 POP JUMP JUMPDEST PUSH32 0x4E487B7100000000000000000000000000000000000000000000000000000000 PUSH1 0x0 MSTORE PUSH1 0x41 PUSH1 0x4 MSTORE PUSH1 0x24 PUSH1 0x0 REVERT JUMPDEST PUSH32 0x4E487B7100000000000000000000000000000000000000000000000000000000 PUSH1 0x0 MSTORE PUSH1 0x22 PUSH1 0x4 MSTORE PUSH1 0x24 PUSH1 0x0 REVERT JUMPDEST PUSH1 0x0 PUSH1 0x2 DUP3 DIV SWAP1 POP PUSH1 0x1 DUP3 AND DUP1 PUSH3 0x2E6 JUMPI PUSH1 0x7F DUP3 AND SWAP2 POP JUMPDEST PUSH1 0x20 DUP3 LT DUP2 SUB PUSH3 0x2FC JUMPI PUSH3 0x2FB PUSH3 0x29E JUMP JUMPDEST JUMPDEST POP SWAP2 SWAP1 POP JUMP JUMPDEST PUSH1 0x0 DUP2 SWAP1 POP DUP2 PUSH1 0x0 MSTORE PUSH1 0x20 PUSH1 0x0 KECCAK256 SWAP1 POP SWAP2 SWAP1 POP JUMP JUMPDEST PUSH1 0x0 PUSH1 0x20 PUSH1 0x1F DUP4 ADD DIV SWAP1 POP SWAP2 SWAP1 POP JUMP JUMPDEST PUSH1 0x0 DUP3 DUP3 SHL SWAP1 POP SWAP3 SWAP2 POP POP JUMP JUMPDEST PUSH1 0x0 PUSH1 0x8 DUP4 MUL PUSH3 0x366 PUSH32 0xFFFFFFFFFFFFFFFFFFFFFFFFFFFFFFFFFFFFFFFFFFFFFFFFFFFFFFFFFFFFFFFF DUP3 PUSH3 0x327 JUMP JUMPDEST PUSH3 0x372 DUP7 DUP4 PUSH3 0x327 JUMP JUMPDEST SWAP6 POP DUP1 NOT DUP5 AND SWAP4 POP DUP1 DUP7 AND DUP5 OR SWAP3 POP POP POP SWAP4 SWAP3 POP POP POP JUMP JUMPDEST PUSH1 0x0 DUP2 SWAP1 POP SWAP2 SWAP1 POP JUMP JUMPDEST PUSH1 0x0 PUSH3 0x3B5 PUSH3 0x3AF PUSH3 0x3A9 DUP5 PUSH3 0x1F0 JUMP JUMPDEST PUSH3 0x38A JUMP JUMPDEST PUSH3 0x1F0 JUMP JUMPDEST SWAP1 POP SWAP2 SWAP1 POP JUMP JUMPDEST PUSH1 0x0 DUP2 SWAP1 POP SWAP2 SWAP1 POP JUMP JUMPDEST PUSH3 0x3D1 DUP4 PUSH3 0x394 JUMP JUMPDEST PUSH3 0x3E9 PUSH3 0x3E0 DUP3 PUSH3 0x3BC JUMP JUMPDEST DUP5 DUP5 SLOAD PUSH3 0x334 JUMP JUMPDEST DUP3 SSTORE POP POP POP POP JUMP JUMPDEST PUSH1 0x0 SWAP1 JUMP JUMPDEST PUSH3 0x400 PUSH3 0x3F1 JUMP JUMPDEST PUSH3 0x40D DUP2 DUP5 DUP5 PUSH3 0x3C6 JUMP JUMPDEST POP POP POP JUMP JUMPDEST JUMPDEST DUP2 DUP2 LT ISZERO PUSH3 0x435 JUMPI PUSH3 0x429 PUSH1 0x0 DUP3 PUSH3 0x3F6 JUMP JUMPDEST PUSH1 0x1 DUP2 ADD SWAP1 POP PUSH3 0x413 JUMP JUMPDEST POP POP JUMP JUMPDEST PUSH1 0x1F DUP3 GT ISZERO PUSH3 0x484 JUMPI PUSH3 0x44E DUP2 PUSH3 0x302 JUMP JUMPDEST PUSH3 0x459 DUP5 PUSH3 0x317 JUMP JUMPDEST DUP2 ADD PUSH1 0x20 DUP6 LT ISZERO PUSH3 0x469 JUMPI DUP2 SWAP1 POP JUMPDEST PUSH3 0x481 PUSH3 0x478 DUP6 PUSH3 0x317 JUMP JUMPDEST DUP4 ADD DUP3 PUSH3 0x412 JUMP JUMPDEST POP POP JUMPDEST POP POP POP JUMP JUMPDEST PUSH1 0x0 DUP3 DUP3 SHR SWAP1 POP SWAP3 SWAP2 POP POP JUMP JUMPDEST PUSH1 0x0 PUSH3 0x4A9 PUSH1 0x0 NOT DUP5 PUSH1 0x8 MUL PUSH3 0x489 JUMP JUMPDEST NOT DUP1 DUP4 AND SWAP2 POP POP SWAP3 SWAP2 POP POP JUMP JUMPDEST PUSH1 0x0 PUSH3 0x4C4 DUP4 DUP4 PUSH3 0x496 JUMP JUMPDEST SWAP2 POP DUP3 PUSH1 0x2 MUL DUP3 OR SWAP1 POP SWAP3 SWAP2 POP POP JUMP JUMPDEST PUSH3 0x4DF DUP3 PUSH3 0x264 JUMP JUMPDEST PUSH8 0xFFFFFFFFFFFFFFFF DUP2 GT ISZERO PUSH3 0x4FB JUMPI PUSH3 0x4FA PUSH3 0x26F JUMP JUMPDEST JUMPDEST PUSH3 0x507 DUP3 SLOAD PUSH3 0x2CD JUMP JUMPDEST PUSH3 0x514 DUP3 DUP3 DUP6 PUSH3 0x439 JUMP JUMPDEST PUSH1 0x0 PUSH1 0x20 SWAP1 POP PUSH1 0x1F DUP4 GT PUSH1 0x1 DUP2 EQ PUSH3 0x54C JUMPI PUSH1 0x0 DUP5 ISZERO PUSH3 0x537 JUMPI DUP3 DUP8 ADD MLOAD SWAP1 POP JUMPDEST PUSH3 0x543 DUP6 DUP3 PUSH3 0x4B6 JUMP JUMPDEST DUP7 SSTORE POP PUSH3 0x5B3 JUMP JUMPDEST PUSH1 0x1F NOT DUP5 AND PUSH3 0x55C DUP7 PUSH3 0x302 JUMP JUMPDEST PUSH1 0x0 JUMPDEST DUP3 DUP2 LT ISZERO PUSH3 0x586 JUMPI DUP5 DUP10 ADD MLOAD DUP3 SSTORE PUSH1 0x1 DUP3 ADD SWAP2 POP PUSH1 0x20 DUP6 ADD SWAP5 POP PUSH1 0x20 DUP2 ADD SWAP1 POP PUSH3 0x55F JUMP JUMPDEST DUP7 DUP4 LT ISZERO PUSH3 0x5A6 JUMPI DUP5 DUP10 ADD MLOAD PUSH3 0x5A2 PUSH1 0x1F DUP10 AND DUP3 PUSH3 0x496 JUMP JUMPDEST DUP4 SSTORE POP JUMPDEST PUSH1 0x1 PUSH1 0x2 DUP9 MUL ADD DUP9 SSTORE POP POP POP JUMPDEST POP POP POP POP POP POP JUMP JUMPDEST PUSH3 0x5C6 DUP2 PUSH3 0x1F0 JUMP JUMPDEST DUP3 MSTORE POP POP JUMP JUMPDEST PUSH1 0x0 DUP3 DUP3 MSTORE PUSH1 0x20 DUP3 ADD SWAP1 POP SWAP3 SWAP2 POP POP JUMP JUMPDEST PUSH1 0x0 JUMPDEST DUP4 DUP2 LT ISZERO PUSH3 0x5FD JUMPI DUP1 DUP3 ADD MLOAD DUP2 DUP5 ADD MSTORE PUSH1 0x20 DUP2 ADD SWAP1 POP PUSH3 0x5E0 JUMP JUMPDEST PUSH1 0x0 DUP5 DUP5 ADD MSTORE POP POP POP POP JUMP JUMPDEST PUSH1 0x0 PUSH1 0x1F NOT PUSH1 0x1F DUP4 ADD AND SWAP1 POP SWAP2 SWAP1 POP JUMP JUMPDEST PUSH1 0x0 PUSH3 0x627 DUP3 PUSH3 0x264 JUMP JUMPDEST PUSH3 0x633 DUP2 DUP6 PUSH3 0x5CC JUMP JUMPDEST SWAP4 POP PUSH3 0x645 DUP2 DUP6 PUSH1 0x20 DUP7 ADD PUSH3 0x5DD JUMP JUMPDEST PUSH3 0x650 DUP2 PUSH3 0x609 JUMP JUMPDEST DUP5 ADD SWAP2 POP POP SWAP3 SWAP2 POP POP JUMP JUMPDEST PUSH1 0x0 PUSH1 0xA0 DUP3 ADD SWAP1 POP PUSH3 0x672 PUSH1 0x0 DUP4 ADD DUP9 PUSH3 0x5BB JUMP JUMPDEST DUP2 DUP2 SUB PUSH1 0x20 DUP4 ADD MSTORE PUSH3 0x686 DUP2 DUP8 PUSH3 0x61A JUMP JUMPDEST SWAP1 POP PUSH3 0x697 PUSH1 0x40 DUP4 ADD DUP7 PUSH3 0x5BB JUMP JUMPDEST DUP2 DUP2 SUB PUSH1 0x60 DUP4 ADD MSTORE PUSH3 0x6AB DUP2 DUP6 PUSH3 0x61A JUMP JUMPDEST SWAP1 POP DUP2 DUP2 SUB PUSH1 0x80 DUP4 ADD MSTORE PUSH3 0x6C1 DUP2 DUP5 PUSH3 0x61A JUMP JUMPDEST SWAP1 POP SWAP7 SWAP6 POP POP POP POP POP POP JUMP JUMPDEST PUSH2 0xF09 DUP1 PUSH3 0x6DD PUSH1 0x0 CODECOPY PUSH1 0x0 RETURN INVALID PUSH1 0x80 PUSH1 0x40 MSTORE CALLVALUE DUP1 ISZERO PUSH2 0x10 JUMPI PUSH1 0x0 DUP1 REVERT JUMPDEST POP PUSH1 0x4 CALLDATASIZE LT PUSH2 0x4C JUMPI PUSH1 0x0 CALLDATALOAD PUSH1 0xE0 SHR DUP1 PUSH4 0x4C07569 EQ PUSH2 0x51 JUMPI DUP1 PUSH4 0x5852CC0C EQ PUSH2 0x81 JUMPI DUP1 PUSH4 0x8548ED11 EQ PUSH2 0xB5 JUMPI DUP1 PUSH4 0xD25D23BD EQ PUSH2 0xD1 JUMPI JUMPDEST PUSH1 0x0 DUP1 REVERT JUMPDEST PUSH2 0x6B PUSH1 0x4 DUP1 CALLDATASIZE SUB DUP2 ADD SWAP1 PUSH2 0x66 SWAP2 SWAP1 PUSH2 0x6B9 JUMP JUMPDEST PUSH2 0xEF JUMP JUMPDEST PUSH1 0x40 MLOAD PUSH2 0x78 SWAP2 SWAP1 PUSH2 0x809 JUMP JUMPDEST PUSH1 0x40 MLOAD DUP1 SWAP2 SUB SWAP1 RETURN JUMPDEST PUSH2 0x9B PUSH1 0x4 DUP1 CALLDATASIZE SUB DUP2 ADD SWAP1 PUSH2 0x96 SWAP2 SWAP1 PUSH2 0x6B9 JUMP JUMPDEST PUSH2 0x33C JUMP JUMPDEST PUSH1 0x40 MLOAD PUSH2 0xAC SWAP6 SWAP5 SWAP4 SWAP3 SWAP2 SWAP1 PUSH2 0x884 JUMP JUMPDEST PUSH1 0x40 MLOAD DUP1 SWAP2 SUB SWAP1 RETURN JUMPDEST PUSH2 0xCF PUSH1 0x4 DUP1 CALLDATASIZE SUB DUP2 ADD SWAP1 PUSH2 0xCA SWAP2 SWAP1 PUSH2 0xA21 JUMP JUMPDEST PUSH2 0x51A JUMP JUMPDEST STOP JUMPDEST PUSH2 0xD9 PUSH2 0x634 JUMP JUMPDEST PUSH1 0x40 MLOAD PUSH2 0xE6 SWAP2 SWAP1 PUSH2 0xADC JUMP JUMPDEST PUSH1 0x40 MLOAD DUP1 SWAP2 SUB SWAP1 RETURN JUMPDEST PUSH2 0xF7 PUSH2 0x640 JUMP JUMPDEST PUSH1 0x0 DUP1 SLOAD SWAP1 POP DUP3 LT PUSH2 0x13E JUMPI PUSH1 0x40 MLOAD PUSH32 0x8C379A000000000000000000000000000000000000000000000000000000000 DUP2 MSTORE PUSH1 0x4 ADD PUSH2 0x135 SWAP1 PUSH2 0xB43 JUMP JUMPDEST PUSH1 0x40 MLOAD DUP1 SWAP2 SUB SWAP1 REVERT JUMPDEST PUSH1 0x0 DUP3 DUP2 SLOAD DUP2 LT PUSH2 0x152 JUMPI PUSH2 0x151 PUSH2 0xB63 JUMP JUMPDEST JUMPDEST SWAP1 PUSH1 0x0 MSTORE PUSH1 0x20 PUSH1 0x0 KECCAK256 SWAP1 PUSH1 0x5 MUL ADD PUSH1 0x40 MLOAD DUP1 PUSH1 0xA0 ADD PUSH1 0x40 MSTORE SWAP1 DUP2 PUSH1 0x0 DUP3 ADD SLOAD DUP2 MSTORE PUSH1 0x20 ADD PUSH1 0x1 DUP3 ADD DUP1 SLOAD PUSH2 0x185 SWAP1 PUSH2 0xBC1 JUMP JUMPDEST DUP1 PUSH1 0x1F ADD PUSH1 0x20 DUP1 SWAP2 DIV MUL PUSH1 0x20 ADD PUSH1 0x40 MLOAD SWAP1 DUP2 ADD PUSH1 0x40 MSTORE DUP1 SWAP3 SWAP2 SWAP1 DUP2 DUP2 MSTORE PUSH1 0x20 ADD DUP3 DUP1 SLOAD PUSH2 0x1B1 SWAP1 PUSH2 0xBC1 JUMP JUMPDEST DUP1 ISZERO PUSH2 0x1FE JUMPI DUP1 PUSH1 0x1F LT PUSH2 0x1D3 JUMPI PUSH2 0x100 DUP1 DUP4 SLOAD DIV MUL DUP4 MSTORE SWAP2 PUSH1 0x20 ADD SWAP2 PUSH2 0x1FE JUMP JUMPDEST DUP3 ADD SWAP2 SWAP1 PUSH1 0x0 MSTORE PUSH1 0x20 PUSH1 0x0 KECCAK256 SWAP1 JUMPDEST DUP2 SLOAD DUP2 MSTORE SWAP1 PUSH1 0x1 ADD SWAP1 PUSH1 0x20 ADD DUP1 DUP4 GT PUSH2 0x1E1 JUMPI DUP3 SWAP1 SUB PUSH1 0x1F AND DUP3 ADD SWAP2 JUMPDEST POP POP POP POP POP DUP2 MSTORE PUSH1 0x20 ADD PUSH1 0x2 DUP3 ADD SLOAD DUP2 MSTORE PUSH1 0x20 ADD PUSH1 0x3 DUP3 ADD DUP1 SLOAD PUSH2 0x221 SWAP1 PUSH2 0xBC1 JUMP JUMPDEST DUP1 PUSH1 0x1F ADD PUSH1 0x20 DUP1 SWAP2 DIV MUL PUSH1 0x20 ADD PUSH1 0x40 MLOAD SWAP1 DUP2 ADD PUSH1 0x40 MSTORE DUP1 SWAP3 SWAP2 SWAP1 DUP2 DUP2 MSTORE PUSH1 0x20 ADD DUP3 DUP1 SLOAD PUSH2 0x24D SWAP1 PUSH2 0xBC1 JUMP JUMPDEST DUP1 ISZERO PUSH2 0x29A JUMPI DUP1 PUSH1 0x1F LT PUSH2 0x26F JUMPI PUSH2 0x100 DUP1 DUP4 SLOAD DIV MUL DUP4 MSTORE SWAP2 PUSH1 0x20 ADD SWAP2 PUSH2 0x29A JUMP JUMPDEST DUP3 ADD SWAP2 SWAP1 PUSH1 0x0 MSTORE PUSH1 0x20 PUSH1 0x0 KECCAK256 SWAP1 JUMPDEST DUP2 SLOAD DUP2 MSTORE SWAP1 PUSH1 0x1 ADD SWAP1 PUSH1 0x20 ADD DUP1 DUP4 GT PUSH2 0x27D JUMPI DUP3 SWAP1 SUB PUSH1 0x1F AND DUP3 ADD SWAP2 JUMPDEST POP POP POP POP POP DUP2 MSTORE PUSH1 0x20 ADD PUSH1 0x4 DUP3 ADD DUP1 SLOAD PUSH2 0x2B3 SWAP1 PUSH2 0xBC1 JUMP JUMPDEST DUP1 PUSH1 0x1F ADD PUSH1 0x20 DUP1 SWAP2 DIV MUL PUSH1 0x20 ADD PUSH1 0x40 MLOAD SWAP1 DUP2 ADD PUSH1 0x40 MSTORE DUP1 SWAP3 SWAP2 SWAP1 DUP2 DUP2 MSTORE PUSH1 0x20 ADD DUP3 DUP1 SLOAD PUSH2 0x2DF SWAP1 PUSH2 0xBC1 JUMP JUMPDEST DUP1 ISZERO PUSH2 0x32C JUMPI DUP1 PUSH1 0x1F LT PUSH2 0x301 JUMPI PUSH2 0x100 DUP1 DUP4 SLOAD DIV MUL DUP4 MSTORE SWAP2 PUSH1 0x20 ADD SWAP2 PUSH2 0x32C JUMP JUMPDEST DUP3 ADD SWAP2 SWAP1 PUSH1 0x0 MSTORE PUSH1 0x20 PUSH1 0x0 KECCAK256 SWAP1 JUMPDEST DUP2 SLOAD DUP2 MSTORE SWAP1 PUSH1 0x1 ADD SWAP1 PUSH1 0x20 ADD DUP1 DUP4 GT PUSH2 0x30F JUMPI DUP3 SWAP1 SUB PUSH1 0x1F AND DUP3 ADD SWAP2 JUMPDEST POP POP POP POP POP DUP2 MSTORE POP POP SWAP1 POP SWAP2 SWAP1 POP JUMP JUMPDEST PUSH1 0x0 DUP2 DUP2 SLOAD DUP2 LT PUSH2 0x34C JUMPI PUSH1 0x0 DUP1 REVERT JUMPDEST SWAP1 PUSH1 0x0 MSTORE PUSH1 0x20 PUSH1 0x0 KECCAK256 SWAP1 PUSH1 0x5 MUL ADD PUSH1 0x0 SWAP2 POP SWAP1 POP DUP1 PUSH1 0x0 ADD SLOAD SWAP1 DUP1 PUSH1 0x1 ADD DUP1 SLOAD PUSH2 0x375 SWAP1 PUSH2 0xBC1 JUMP JUMPDEST DUP1 PUSH1 0x1F ADD PUSH1 0x20 DUP1 SWAP2 DIV MUL PUSH1 0x20 ADD PUSH1 0x40 MLOAD SWAP1 DUP2 ADD PUSH1 0x40 MSTORE DUP1 SWAP3 SWAP2 SWAP1 DUP2 DUP2 MSTORE PUSH1 0x20 ADD DUP3 DUP1 SLOAD PUSH2 0x3A1 SWAP1 PUSH2 0xBC1 JUMP JUMPDEST DUP1 ISZERO PUSH2 0x3EE JUMPI DUP1 PUSH1 0x1F LT PUSH2 0x3C3 JUMPI PUSH2 0x100 DUP1 DUP4 SLOAD DIV MUL DUP4 MSTORE SWAP2 PUSH1 0x20 ADD SWAP2 PUSH2 0x3EE JUMP JUMPDEST DUP3 ADD SWAP2 SWAP1 PUSH1 0x0 MSTORE PUSH1 0x20 PUSH1 0x0 KECCAK256 SWAP1 JUMPDEST DUP2 SLOAD DUP2 MSTORE SWAP1 PUSH1 0x1 ADD SWAP1 PUSH1 0x20 ADD DUP1 DUP4 GT PUSH2 0x3D1 JUMPI DUP3 SWAP1 SUB PUSH1 0x1F AND DUP3 ADD SWAP2 JUMPDEST POP POP POP POP POP SWAP1 DUP1 PUSH1 0x2 ADD SLOAD SWAP1 DUP1 PUSH1 0x3 ADD DUP1 SLOAD PUSH2 0x409 SWAP1 PUSH2 0xBC1 JUMP JUMPDEST DUP1 PUSH1 0x1F ADD PUSH1 0x20 DUP1 SWAP2 DIV MUL PUSH1 0x20 ADD PUSH1 0x40 MLOAD SWAP1 DUP2 ADD PUSH1 0x40 MSTORE DUP1 SWAP3 SWAP2 SWAP1 DUP2 DUP2 MSTORE PUSH1 0x20 ADD DUP3 DUP1 SLOAD PUSH2 0x435 SWAP1 PUSH2 0xBC1 JUMP JUMPDEST DUP1 ISZERO PUSH2 0x482 JUMPI DUP1 PUSH1 0x1F LT PUSH2 0x457 JUMPI PUSH2 0x100 DUP1 DUP4 SLOAD DIV MUL DUP4 MSTORE SWAP2 PUSH1 0x20 ADD SWAP2 PUSH2 0x482 JUMP JUMPDEST DUP3 ADD SWAP2 SWAP1 PUSH1 0x0 MSTORE PUSH1 0x20 PUSH1 0x0 KECCAK256 SWAP1 JUMPDEST DUP2 SLOAD DUP2 MSTORE SWAP1 PUSH1 0x1 ADD SWAP1 PUSH1 0x20 ADD DUP1 DUP4 GT PUSH2 0x465 JUMPI DUP3 SWAP1 SUB PUSH1 0x1F AND DUP3 ADD SWAP2 JUMPDEST POP POP POP POP POP SWAP1 DUP1 PUSH1 0x4 ADD DUP1 SLOAD PUSH2 0x497 SWAP1 PUSH2 0xBC1 JUMP JUMPDEST DUP1 PUSH1 0x1F ADD PUSH1 0x20 DUP1 SWAP2 DIV MUL PUSH1 0x20 ADD PUSH1 0x40 MLOAD SWAP1 DUP2 ADD PUSH1 0x40 MSTORE DUP1 SWAP3 SWAP2 SWAP1 DUP2 DUP2 MSTORE PUSH1 0x20 ADD DUP3 DUP1 SLOAD PUSH2 0x4C3 SWAP1 PUSH2 0xBC1 JUMP JUMPDEST DUP1 ISZERO PUSH2 0x510 JUMPI DUP1 PUSH1 0x1F LT PUSH2 0x4E5 JUMPI PUSH2 0x100 DUP1 DUP4 SLOAD DIV MUL DUP4 MSTORE SWAP2 PUSH1 0x20 ADD SWAP2 PUSH2 0x510 JUMP JUMPDEST DUP3 ADD SWAP2 SWAP1 PUSH1 0x0 MSTORE PUSH1 0x20 PUSH1 0x0 KECCAK256 SWAP1 JUMPDEST DUP2 SLOAD DUP2 MSTORE SWAP1 PUSH1 0x1 ADD SWAP1 PUSH1 0x20 ADD DUP1 DUP4 GT PUSH2 0x4F3 JUMPI DUP3 SWAP1 SUB PUSH1 0x1F AND DUP3 ADD SWAP2 JUMPDEST POP POP POP POP POP SWAP1 POP DUP6 JUMP JUMPDEST PUSH1 0x0 PUSH1 0x40 MLOAD DUP1 PUSH1 0xA0 ADD PUSH1 0x40 MSTORE DUP1 PUSH1 0x1 PUSH1 0x0 DUP1 SLOAD SWAP1 POP PUSH2 0x539 SWAP2 SWAP1 PUSH2 0xC21 JUMP JUMPDEST DUP2 MSTORE PUSH1 0x20 ADD DUP7 DUP2 MSTORE PUSH1 0x20 ADD DUP6 DUP2 MSTORE PUSH1 0x20 ADD DUP5 DUP2 MSTORE PUSH1 0x20 ADD DUP4 DUP2 MSTORE POP SWAP1 POP PUSH1 0x0 DUP2 SWAP1 DUP1 PUSH1 0x1 DUP2 SLOAD ADD DUP1 DUP3 SSTORE DUP1 SWAP2 POP POP PUSH1 0x1 SWAP1 SUB SWAP1 PUSH1 0x0 MSTORE PUSH1 0x20 PUSH1 0x0 KECCAK256 SWAP1 PUSH1 0x5 MUL ADD PUSH1 0x0 SWAP1 SWAP2 SWAP1 SWAP2 SWAP1 SWAP2 POP PUSH1 0x0 DUP3 ADD MLOAD DUP2 PUSH1 0x0 ADD SSTORE PUSH1 0x20 DUP3 ADD MLOAD DUP2 PUSH1 0x1 ADD SWAP1 DUP2 PUSH2 0x5A1 SWAP2 SWAP1 PUSH2 0xE01 JUMP JUMPDEST POP PUSH1 0x40 DUP3 ADD MLOAD DUP2 PUSH1 0x2 ADD SSTORE PUSH1 0x60 DUP3 ADD MLOAD DUP2 PUSH1 0x3 ADD SWAP1 DUP2 PUSH2 0x5C1 SWAP2 SWAP1 PUSH2 0xE01 JUMP JUMPDEST POP PUSH1 0x80 DUP3 ADD MLOAD DUP2 PUSH1 0x4 ADD SWAP1 DUP2 PUSH2 0x5D7 SWAP2 SWAP1 PUSH2 0xE01 JUMP JUMPDEST POP POP POP PUSH32 0x9BA7D20C416838F34BCBF35FD81C63486032F3B8CF5AF6261BF4EE7B64A2583 DUP2 PUSH1 0x0 ADD MLOAD DUP3 PUSH1 0x20 ADD MLOAD DUP4 PUSH1 0x40 ADD MLOAD DUP5 PUSH1 0x60 ADD MLOAD DUP6 PUSH1 0x80 ADD MLOAD PUSH1 0x40 MLOAD PUSH2 0x625 SWAP6 SWAP5 SWAP4 SWAP3 SWAP2 SWAP1 PUSH2 0x884 JUMP JUMPDEST PUSH1 0x40 MLOAD DUP1 SWAP2 SUB SWAP1 LOG1 POP POP POP POP POP JUMP JUMPDEST PUSH1 0x0 DUP1 DUP1 SLOAD SWAP1 POP SWAP1 POP SWAP1 JUMP JUMPDEST PUSH1 0x40 MLOAD DUP1 PUSH1 0xA0 ADD PUSH1 0x40 MSTORE DUP1 PUSH1 0x0 DUP2 MSTORE PUSH1 0x20 ADD PUSH1 0x60 DUP2 MSTORE PUSH1 0x20 ADD PUSH1 0x0 DUP2 MSTORE PUSH1 0x20 ADD PUSH1 0x60 DUP2 MSTORE PUSH1 0x20 ADD PUSH1 0x60 DUP2 MSTORE POP SWAP1 JUMP JUMPDEST PUSH1 0x0 PUSH1 0x40 MLOAD SWAP1 POP SWAP1 JUMP JUMPDEST PUSH1 0x0 DUP1 REVERT JUMPDEST PUSH1 0x0 DUP1 REVERT JUMPDEST PUSH1 0x0 DUP2 SWAP1 POP SWAP2 SWAP1 POP JUMP JUMPDEST PUSH2 0x696 DUP2 PUSH2 0x683 JUMP JUMPDEST DUP2 EQ PUSH2 0x6A1 JUMPI PUSH1 0x0 DUP1 REVERT JUMPDEST POP JUMP JUMPDEST PUSH1 0x0 DUP2 CALLDATALOAD SWAP1 POP PUSH2 0x6B3 DUP2 PUSH2 0x68D JUMP JUMPDEST SWAP3 SWAP2 POP POP JUMP JUMPDEST PUSH1 0x0 PUSH1 0x20 DUP3 DUP5 SUB SLT ISZERO PUSH2 0x6CF JUMPI PUSH2 0x6CE PUSH2 0x679 JUMP JUMPDEST JUMPDEST PUSH1 0x0 PUSH2 0x6DD DUP5 DUP3 DUP6 ADD PUSH2 0x6A4 JUMP JUMPDEST SWAP2 POP POP SWAP3 SWAP2 POP POP JUMP JUMPDEST PUSH2 0x6EF DUP2 PUSH2 0x683 JUMP JUMPDEST DUP3 MSTORE POP POP JUMP JUMPDEST PUSH1 0x0 DUP2 MLOAD SWAP1 POP SWAP2 SWAP1 POP JUMP JUMPDEST PUSH1 0x0 DUP3 DUP3 MSTORE PUSH1 0x20 DUP3 ADD SWAP1 POP SWAP3 SWAP2 POP POP JUMP JUMPDEST PUSH1 0x0 JUMPDEST DUP4 DUP2 LT ISZERO PUSH2 0x72F JUMPI DUP1 DUP3 ADD MLOAD DUP2 DUP5 ADD MSTORE PUSH1 0x20 DUP2 ADD SWAP1 POP PUSH2 0x714 JUMP JUMPDEST PUSH1 0x0 DUP5 DUP5 ADD MSTORE POP POP POP POP JUMP JUMPDEST PUSH1 0x0 PUSH1 0x1F NOT PUSH1 0x1F DUP4 ADD AND SWAP1 POP SWAP2 SWAP1 POP JUMP JUMPDEST PUSH1 0x0 PUSH2 0x757 DUP3 PUSH2 0x6F5 JUMP JUMPDEST PUSH2 0x761 DUP2 DUP6 PUSH2 0x700 JUMP JUMPDEST SWAP4 POP PUSH2 0x771 DUP2 DUP6 PUSH1 0x20 DUP7 ADD PUSH2 0x711 JUMP JUMPDEST PUSH2 0x77A DUP2 PUSH2 0x73B JUMP JUMPDEST DUP5 ADD SWAP2 POP POP SWAP3 SWAP2 POP POP JUMP JUMPDEST PUSH1 0x0 PUSH1 0xA0 DUP4 ADD PUSH1 0x0 DUP4 ADD MLOAD PUSH2 0x79D PUSH1 0x0 DUP7 ADD DUP3 PUSH2 0x6E6 JUMP JUMPDEST POP PUSH1 0x20 DUP4 ADD MLOAD DUP5 DUP3 SUB PUSH1 0x20 DUP7 ADD MSTORE PUSH2 0x7B5 DUP3 DUP3 PUSH2 0x74C JUMP JUMPDEST SWAP2 POP POP PUSH1 0x40 DUP4 ADD MLOAD PUSH2 0x7CA PUSH1 0x40 DUP7 ADD DUP3 PUSH2 0x6E6 JUMP JUMPDEST POP PUSH1 0x60 DUP4 ADD MLOAD DUP5 DUP3 SUB PUSH1 0x60 DUP7 ADD MSTORE PUSH2 0x7E2 DUP3 DUP3 PUSH2 0x74C JUMP JUMPDEST SWAP2 POP POP PUSH1 0x80 DUP4 ADD MLOAD DUP5 DUP3 SUB PUSH1 0x80 DUP7 ADD MSTORE PUSH2 0x7FC DUP3 DUP3 PUSH2 0x74C JUMP JUMPDEST SWAP2 POP POP DUP1 SWAP2 POP POP SWAP3 SWAP2 POP POP JUMP JUMPDEST PUSH1 0x0 PUSH1 0x20 DUP3 ADD SWAP1 POP DUP2 DUP2 SUB PUSH1 0x0 DUP4 ADD MSTORE PUSH2 0x823 DUP2 DUP5 PUSH2 0x785 JUMP JUMPDEST SWAP1 POP SWAP3 SWAP2 POP POP JUMP JUMPDEST PUSH2 0x834 DUP2 PUSH2 0x683 JUMP JUMPDEST DUP3 MSTORE POP POP JUMP JUMPDEST PUSH1 0x0 DUP3 DUP3 MSTORE PUSH1 0x20 DUP3 ADD SWAP1 POP SWAP3 SWAP2 POP POP JUMP JUMPDEST PUSH1 0x0 PUSH2 0x856 DUP3 PUSH2 0x6F5 JUMP JUMPDEST PUSH2 0x860 DUP2 DUP6 PUSH2 0x83A JUMP JUMPDEST SWAP4 POP PUSH2 0x870 DUP2 DUP6 PUSH1 0x20 DUP7 ADD PUSH2 0x711 JUMP JUMPDEST PUSH2 0x879 DUP2 PUSH2 0x73B JUMP JUMPDEST DUP5 ADD SWAP2 POP POP SWAP3 SWAP2 POP POP JUMP JUMPDEST PUSH1 0x0 PUSH1 0xA0 DUP3 ADD SWAP1 POP PUSH2 0x899 PUSH1 0x0 DUP4 ADD DUP9 PUSH2 0x82B JUMP JUMPDEST DUP2 DUP2 SUB PUSH1 0x20 DUP4 ADD MSTORE PUSH2 0x8AB DUP2 DUP8 PUSH2 0x84B JUMP JUMPDEST SWAP1 POP PUSH2 0x8BA PUSH1 0x40 DUP4 ADD DUP7 PUSH2 0x82B JUMP JUMPDEST DUP2 DUP2 SUB PUSH1 0x60 DUP4 ADD MSTORE PUSH2 0x8CC DUP2 DUP6 PUSH2 0x84B JUMP JUMPDEST SWAP1 POP DUP2 DUP2 SUB PUSH1 0x80 DUP4 ADD MSTORE PUSH2 0x8E0 DUP2 DUP5 PUSH2 0x84B JUMP JUMPDEST SWAP1 POP SWAP7 SWAP6 POP POP POP POP POP POP JUMP JUMPDEST PUSH1 0x0 DUP1 REVERT JUMPDEST PUSH1 0x0 DUP1 REVERT JUMPDEST PUSH32 0x4E487B7100000000000000000000000000000000000000000000000000000000 PUSH1 0x0 MSTORE PUSH1 0x41 PUSH1 0x4 MSTORE PUSH1 0x24 PUSH1 0x0 REVERT JUMPDEST PUSH2 0x92E DUP3 PUSH2 0x73B JUMP JUMPDEST DUP2 ADD DUP2 DUP2 LT PUSH8 0xFFFFFFFFFFFFFFFF DUP3 GT OR ISZERO PUSH2 0x94D JUMPI PUSH2 0x94C PUSH2 0x8F6 JUMP JUMPDEST JUMPDEST DUP1 PUSH1 0x40 MSTORE POP POP POP JUMP JUMPDEST PUSH1 0x0 PUSH2 0x960 PUSH2 0x66F JUMP JUMPDEST SWAP1 POP PUSH2 0x96C DUP3 DUP3 PUSH2 0x925 JUMP JUMPDEST SWAP2 SWAP1 POP JUMP JUMPDEST PUSH1 0x0 PUSH8 0xFFFFFFFFFFFFFFFF DUP3 GT ISZERO PUSH2 0x98C JUMPI PUSH2 0x98B PUSH2 0x8F6 JUMP JUMPDEST JUMPDEST PUSH2 0x995 DUP3 PUSH2 0x73B JUMP JUMPDEST SWAP1 POP PUSH1 0x20 DUP2 ADD SWAP1 POP SWAP2 SWAP1 POP JUMP JUMPDEST DUP3 DUP2 DUP4 CALLDATACOPY PUSH1 0x0 DUP4 DUP4 ADD MSTORE POP POP POP JUMP JUMPDEST PUSH1 0x0 PUSH2 0x9C4 PUSH2 0x9BF DUP5 PUSH2 0x971 JUMP JUMPDEST PUSH2 0x956 JUMP JUMPDEST SWAP1 POP DUP3 DUP2 MSTORE PUSH1 0x20 DUP2 ADD DUP5 DUP5 DUP5 ADD GT ISZERO PUSH2 0x9E0 JUMPI PUSH2 0x9DF PUSH2 0x8F1 JUMP JUMPDEST JUMPDEST PUSH2 0x9EB DUP5 DUP3 DUP6 PUSH2 0x9A2 JUMP JUMPDEST POP SWAP4 SWAP3 POP POP POP JUMP JUMPDEST PUSH1 0x0 DUP3 PUSH1 0x1F DUP4 ADD SLT PUSH2 0xA08 JUMPI PUSH2 0xA07 PUSH2 0x8EC JUMP JUMPDEST JUMPDEST DUP2 CALLDATALOAD PUSH2 0xA18 DUP5 DUP3 PUSH1 0x20 DUP7 ADD PUSH2 0x9B1 JUMP JUMPDEST SWAP2 POP POP SWAP3 SWAP2 POP POP JUMP JUMPDEST PUSH1 0x0 DUP1 PUSH1 0x0 DUP1 PUSH1 0x80 DUP6 DUP8 SUB SLT ISZERO PUSH2 0xA3B JUMPI PUSH2 0xA3A PUSH2 0x679 JUMP JUMPDEST JUMPDEST PUSH1 0x0 DUP6 ADD CALLDATALOAD PUSH8 0xFFFFFFFFFFFFFFFF DUP2 GT ISZERO PUSH2 0xA59 JUMPI PUSH2 0xA58 PUSH2 0x67E JUMP JUMPDEST JUMPDEST PUSH2 0xA65 DUP8 DUP3 DUP9 ADD PUSH2 0x9F3 JUMP JUMPDEST SWAP5 POP POP PUSH1 0x20 PUSH2 0xA76 DUP8 DUP3 DUP9 ADD PUSH2 0x6A4 JUMP JUMPDEST SWAP4 POP POP PUSH1 0x40 DUP6 ADD CALLDATALOAD PUSH8 0xFFFFFFFFFFFFFFFF DUP2 GT ISZERO PUSH2 0xA97 JUMPI PUSH2 0xA96 PUSH2 0x67E JUMP JUMPDEST JUMPDEST PUSH2 0xAA3 DUP8 DUP3 DUP9 ADD PUSH2 0x9F3 JUMP JUMPDEST SWAP3 POP POP PUSH1 0x60 DUP6 ADD CALLDATALOAD PUSH8 0xFFFFFFFFFFFFFFFF DUP2 GT ISZERO PUSH2 0xAC4 JUMPI PUSH2 0xAC3 PUSH2 0x67E JUMP JUMPDEST JUMPDEST PUSH2 0xAD0 DUP8 DUP3 DUP9 ADD PUSH2 0x9F3 JUMP JUMPDEST SWAP2 POP POP SWAP3 SWAP6 SWAP2 SWAP5 POP SWAP3 POP JUMP JUMPDEST PUSH1 0x0 PUSH1 0x20 DUP3 ADD SWAP1 POP PUSH2 0xAF1 PUSH1 0x0 DUP4 ADD DUP5 PUSH2 0x82B JUMP JUMPDEST SWAP3 SWAP2 POP POP JUMP JUMPDEST PUSH32 0x496E646578206F7574206F6620626F756E647300000000000000000000000000 PUSH1 0x0 DUP3 ADD MSTORE POP JUMP JUMPDEST PUSH1 0x0 PUSH2 0xB2D PUSH1 0x13 DUP4 PUSH2 0x83A JUMP JUMPDEST SWAP2 POP PUSH2 0xB38 DUP3 PUSH2 0xAF7 JUMP JUMPDEST PUSH1 0x20 DUP3 ADD SWAP1 POP SWAP2 SWAP1 POP JUMP JUMPDEST PUSH1 0x0 PUSH1 0x20 DUP3 ADD SWAP1 POP DUP2 DUP2 SUB PUSH1 0x0 DUP4 ADD MSTORE PUSH2 0xB5C DUP2 PUSH2 0xB20 JUMP JUMPDEST SWAP1 POP SWAP2 SWAP1 POP JUMP JUMPDEST PUSH32 0x4E487B7100000000000000000000000000000000000000000000000000000000 PUSH1 0x0 MSTORE PUSH1 0x32 PUSH1 0x4 MSTORE PUSH1 0x24 PUSH1 0x0 REVERT JUMPDEST PUSH32 0x4E487B7100000000000000000000000000000000000000000000000000000000 PUSH1 0x0 MSTORE PUSH1 0x22 PUSH1 0x4 MSTORE PUSH1 0x24 PUSH1 0x0 REVERT JUMPDEST PUSH1 0x0 PUSH1 0x2 DUP3 DIV SWAP1 POP PUSH1 0x1 DUP3 AND DUP1 PUSH2 0xBD9 JUMPI PUSH1 0x7F DUP3 AND SWAP2 POP JUMPDEST PUSH1 0x20 DUP3 LT DUP2 SUB PUSH2 0xBEC JUMPI PUSH2 0xBEB PUSH2 0xB92 JUMP JUMPDEST JUMPDEST POP SWAP2 SWAP1 POP JUMP JUMPDEST PUSH32 0x4E487B7100000000000000000000000000000000000000000000000000000000 PUSH1 0x0 MSTORE PUSH1 0x11 PUSH1 0x4 MSTORE PUSH1 0x24 PUSH1 0x0 REVERT JUMPDEST PUSH1 0x0 PUSH2 0xC2C DUP3 PUSH2 0x683 JUMP JUMPDEST SWAP2 POP PUSH2 0xC37 DUP4 PUSH2 0x683 JUMP JUMPDEST SWAP3 POP DUP3 DUP3 ADD SWAP1 POP DUP1 DUP3 GT ISZERO PUSH2 0xC4F JUMPI PUSH2 0xC4E PUSH2 0xBF2 JUMP JUMPDEST JUMPDEST SWAP3 SWAP2 POP POP JUMP JUMPDEST PUSH1 0x0 DUP2 SWAP1 POP DUP2 PUSH1 0x0 MSTORE PUSH1 0x20 PUSH1 0x0 KECCAK256 SWAP1 POP SWAP2 SWAP1 POP JUMP JUMPDEST PUSH1 0x0 PUSH1 0x20 PUSH1 0x1F DUP4 ADD DIV SWAP1 POP SWAP2 SWAP1 POP JUMP JUMPDEST PUSH1 0x0 DUP3 DUP3 SHL SWAP1 POP SWAP3 SWAP2 POP POP JUMP JUMPDEST PUSH1 0x0 PUSH1 0x8 DUP4 MUL PUSH2 0xCB7 PUSH32 0xFFFFFFFFFFFFFFFFFFFFFFFFFFFFFFFFFFFFFFFFFFFFFFFFFFFFFFFFFFFFFFFF DUP3 PUSH2 0xC7A JUMP JUMPDEST PUSH2 0xCC1 DUP7 DUP4 PUSH2 0xC7A JUMP JUMPDEST SWAP6 POP DUP1 NOT DUP5 AND SWAP4 POP DUP1 DUP7 AND DUP5 OR SWAP3 POP POP POP SWAP4 SWAP3 POP POP POP JUMP JUMPDEST PUSH1 0x0 DUP2 SWAP1 POP SWAP2 SWAP1 POP JUMP JUMPDEST PUSH1 0x0 PUSH2 0xCFE PUSH2 0xCF9 PUSH2 0xCF4 DUP5 PUSH2 0x683 JUMP JUMPDEST PUSH2 0xCD9 JUMP JUMPDEST PUSH2 0x683 JUMP JUMPDEST SWAP1 POP SWAP2 SWAP1 POP JUMP JUMPDEST PUSH1 0x0 DUP2 SWAP1 POP SWAP2 SWAP1 POP JUMP JUMPDEST PUSH2 0xD18 DUP4 PUSH2 0xCE3 JUMP JUMPDEST PUSH2 0xD2C PUSH2 0xD24 DUP3 PUSH2 0xD05 JUMP JUMPDEST DUP5 DUP5 SLOAD PUSH2 0xC87 JUMP JUMPDEST DUP3 SSTORE POP POP POP POP JUMP JUMPDEST PUSH1 0x0 SWAP1 JUMP JUMPDEST PUSH2 0xD41 PUSH2 0xD34 JUMP JUMPDEST PUSH2 0xD4C DUP2 DUP5 DUP5 PUSH2 0xD0F JUMP JUMPDEST POP POP POP JUMP JUMPDEST JUMPDEST DUP2 DUP2 LT ISZERO PUSH2 0xD70 JUMPI PUSH2 0xD65 PUSH1 0x0 DUP3 PUSH2 0xD39 JUMP JUMPDEST PUSH1 0x1 DUP2 ADD SWAP1 POP PUSH2 0xD52 JUMP JUMPDEST POP POP JUMP JUMPDEST PUSH1 0x1F DUP3 GT ISZERO PUSH2 0xDB5 JUMPI PUSH2 0xD86 DUP2 PUSH2 0xC55 JUMP JUMPDEST PUSH2 0xD8F DUP5 PUSH2 0xC6A JUMP JUMPDEST DUP2 ADD PUSH1 0x20 DUP6 LT ISZERO PUSH2 0xD9E JUMPI DUP2 SWAP1 POP JUMPDEST PUSH2 0xDB2 PUSH2 0xDAA DUP6 PUSH2 0xC6A JUMP JUMPDEST DUP4 ADD DUP3 PUSH2 0xD51 JUMP JUMPDEST POP POP JUMPDEST POP POP POP JUMP JUMPDEST PUSH1 0x0 DUP3 DUP3 SHR SWAP1 POP SWAP3 SWAP2 POP POP JUMP JUMPDEST PUSH1 0x0 PUSH2 0xDD8 PUSH1 0x0 NOT DUP5 PUSH1 0x8 MUL PUSH2 0xDBA JUMP JUMPDEST NOT DUP1 DUP4 AND SWAP2 POP POP SWAP3 SWAP2 POP POP JUMP JUMPDEST PUSH1 0x0 PUSH2 0xDF1 DUP4 DUP4 PUSH2 0xDC7 JUMP JUMPDEST SWAP2 POP DUP3 PUSH1 0x2 MUL DUP3 OR SWAP1 POP SWAP3 SWAP2 POP POP JUMP JUMPDEST PUSH2 0xE0A DUP3 PUSH2 0x6F5 JUMP JUMPDEST PUSH8 0xFFFFFFFFFFFFFFFF DUP2 GT ISZERO PUSH2 0xE23 JUMPI PUSH2 0xE22 PUSH2 0x8F6 JUMP JUMPDEST JUMPDEST PUSH2 0xE2D DUP3 SLOAD PUSH2 0xBC1 JUMP JUMPDEST PUSH2 0xE38 DUP3 DUP3 DUP6 PUSH2 0xD74 JUMP JUMPDEST PUSH1 0x0 PUSH1 0x20 SWAP1 POP PUSH1 0x1F DUP4 GT PUSH1 0x1 DUP2 EQ PUSH2 0xE6B JUMPI PUSH1 0x0 DUP5 ISZERO PUSH2 0xE59 JUMPI DUP3 DUP8 ADD MLOAD SWAP1 POP JUMPDEST PUSH2 0xE63 DUP6 DUP3 PUSH2 0xDE5 JUMP JUMPDEST DUP7 SSTORE POP PUSH2 0xECB JUMP JUMPDEST PUSH1 0x1F NOT DUP5 AND PUSH2 0xE79 DUP7 PUSH2 0xC55 JUMP JUMPDEST PUSH1 0x0 JUMPDEST DUP3 DUP2 LT ISZERO PUSH2 0xEA1 JUMPI DUP5 DUP10 ADD MLOAD DUP3 SSTORE PUSH1 0x1 DUP3 ADD SWAP2 POP PUSH1 0x20 DUP6 ADD SWAP5 POP PUSH1 0x20 DUP2 ADD SWAP1 POP PUSH2 0xE7C JUMP JUMPDEST DUP7 DUP4 LT ISZERO PUSH2 0xEBE JUMPI DUP5 DUP10 ADD MLOAD PUSH2 0xEBA PUSH1 0x1F DUP10 AND DUP3 PUSH2 0xDC7 JUMP JUMPDEST DUP4 SSTORE POP JUMPDEST PUSH1 0x1 PUSH1 0x2 DUP9 MUL ADD DUP9 SSTORE POP POP POP JUMPDEST POP POP POP POP POP POP JUMP INVALID LOG2 PUSH5 0x6970667358 0x22 SLT KECCAK256 0xD4 SWAP7 CHAINID MCOPY 0xE3 CALL LOG0 PUSH4 0xB7E5DE7B 0xB1 RETURNDATASIZE EXTCODEHASH PUSH20 0xDA7A6887881B1BCF04520392BCFE20B464736F6C PUSH4 0x43000818 STOP CALLER "},"methodIdentifiers":{"chain(uint256)":"5852cc0c","createBlock(string,uint256,string,string)":"8548ed11","getBlock(uint256)":"04c07569","getChainCount()":"d25d23bd"}}}}}