{
  "_format": "hh-sol-artifact-1",
  "contractName": "AuditChain",
  "sourceName": "contracts/AuditChain.sol",
  "abi": [
    {
      "inputs": [],
      "stateMutability": "nonpayable",
      "type": "constructor"
    },
    {
      "anonymous": false,
      "inputs": [
        {
          "indexed": false,
          "internalType": "uint256",
          "name": "index",
          "type": "uint256"
        },
        {
          "indexed": false,
          "internalType": "string",
          "name": "timestamp",
          "type": "string"
        },
        {
          "indexed": false,
          "internalType": "uint256",
          "name": "proof",
          "type": "uint256"
        },
        {
          "indexed": false,
          "internalType": "string",
          "name": "previousHash",
          "type": "string"
        },
        {
          "indexed": false,
          "internalType": "string",
          "name": "meta",
          "type": "string"
        }
      ],
      "name": "BlockAdded",
      "type": "event"
    },
    {
      "inputs": [
        {
          "internalType": "uint256",
          "name": "",
          "type": "uint256"
        }
      ],
      "name": "chain",
      "outputs": [
        {
          "internalType": "uint256",
          "name": "index",
          "type": "uint256"
        },
        {
          "internalType": "string",
          "name": "timestamp",
          "type": "string"
        },
        {
          "internalType": "uint256",
          "name": "proof",
          "type": "uint256"
        },
        {
          "internalType": "string",
          "name": "previousHash",
          "type": "string"
        },
        {
          "internalType": "string",
          "name": "meta",
          "type": "string"
        }
      ],
      "stateMutability": "view",
      "type": "function"
    },
    {
      "inputs": [
        {
          "internalType": "string",
          "name": "_timestamp",
          "type": "string"
        },
        {
          "internalType": "uint256",
          "name": "_proof",
          "type": "uint256"
        },
        {
          "internalType": "string",
          "name": "_previousHash",
          "type": "string"
        },
        {
          "internalType": "string",
          "name": "_meta",
          "type": "string"
        }
      ],
      "name": "createBlock",
      "outputs": [],
      "stateMutability": "nonpayable",
      "type": "function"
    },
    {
      "inputs": [
        {
          "internalType": "uint256",
          "name": "index",
          "type": "uint256"
        }
      ],
      "name": "getBlock",
      "outputs": [
        {
          "components": [
            {
              "internalType": "uint256",
              "name": "index",
              "type": "uint256"
            },
            {
              "internalType": "string",
              "name": "timestamp",
              "type": "string"
            },
            {
              "internalType": "uint256",
              "name": "proof",
              "type": "uint256"
            },
            {
              "internalType": "string",
              "name": "previousHash",
              "type": "string"
            },
            {
              "internalType": "string",
              "name": "meta",
              "type": "string"
            }
          ],
          "internalType": "struct AuditChain.Block",
          "name": "",
          "type": "tuple"
        }
      ],
      "stateMutability": "view",
      "type": "function"
    },
    {
      "inputs": [],
      "name": "getChainCount",
      "outputs": [
        {
          "internalType": "uint256",
          "name": "",
          "type": "uint256"
        }
      ],
      "stateMutability": "view",
      "type": "function"
    }
  ],
  "bytecode": "0x60806040523480156200001157600080fd5b50620000c66040518060400160405280601381526020017f313937302d30312d30312030303a30303a30300000000000000000000000000081525060016040518060400160405280600181526020017f30000000000000000000000000000000000000000000000000000000000000008152506040518060400160405280600d81526020017f47656e6573697320426c6f636b00000000000000000000000000000000000000815250620000cc60201b60201c565b620006cd565b60006040518060a001604052806001600080549050620000ed919062000229565b81526020018681526020018581526020018481526020018381525090506000819080600181540180825580915050600190039060005260206000209060050201600090919091909150600082015181600001556020820151816001019081620001579190620004d4565b50604082015181600201556060820151816003019081620001799190620004d4565b506080820151816004019081620001919190620004d4565b5050507f09ba7d20c416838f34bcbf35fd81c63486032f3b8cf5af6261bf4ee7b64a258381600001518260200151836040015184606001518560800151604051620001e19594939291906200065b565b60405180910390a15050505050565b6000819050919050565b7f4e487b7100000000000000000000000000000000000000000000000000000000600052601160045260246000fd5b60006200023682620001f0565b91506200024383620001f0565b92508282019050808211156200025e576200025d620001fa565b5b92915050565b600081519050919050565b7f4e487b7100000000000000000000000000000000000000000000000000000000600052604160045260246000fd5b7f4e487b7100000000000000000000000000000000000000000000000000000000600052602260045260246000fd5b60006002820490506001821680620002e657607f821691505b602082108103620002fc57620002fb6200029e565b5b50919050565b60008190508160005260206000209050919050565b60006020601f8301049050919050565b600082821b905092915050565b600060088302620003667fffffffffffffffffffffffffffffffffffffffffffffffffffffffffffffffff8262000327565b62000372868362000327565b95508019841693508086168417925050509392505050565b6000819050919050565b6000620003b5620003af620003a984620001f0565b6200038a565b620001f0565b9050919050565b6000819050919050565b620003d18362000394565b620003e9620003e082620003bc565b84845462000334565b825550505050565b600090565b62000400620003f1565b6200040d818484620003c6565b505050565b5b81811015620004355762000429600082620003f6565b60018101905062000413565b5050565b601f82111562000484576200044e8162000302565b620004598462000317565b8101602085101562000469578190505b62000481620004788562000317565b83018262000412565b50505b505050565b600082821c905092915050565b6000620004a96000198460080262000489565b1980831691505092915050565b6000620004c4838362000496565b9150826002028217905092915050565b620004df8262000264565b67ffffffffffffffff811115620004fb57620004fa6200026f565b5b620005078254620002cd565b6200051482828562000439565b600060209050601f8311600181146200054c576000841562000537578287015190505b620005438582620004b6565b865550620005b3565b601f1984166200055c8662000302565b60005b8281101562000586578489015182556001820191506020850194506020810190506200055f565b86831015620005a65784890151620005a2601f89168262000496565b8355505b6001600288020188555050505b505050505050565b620005c681620001f0565b82525050565b600082825260208201905092915050565b60005b83811015620005fd578082015181840152602081019050620005e0565b60008484015250505050565b6000601f19601f8301169050919050565b6000620006278262000264565b620006338185620005cc565b935062000645818560208601620005dd565b620006508162000609565b840191505092915050565b600060a082019050620006726000830188620005bb565b81810360208301526200068681876200061a565b9050620006976040830186620005bb565b8181036060830152620006ab81856200061a565b90508181036080830152620006c181846200061a565b90509695505050505050565b610f0980620006dd6000396000f3fe608060405234801561001057600080fd5b506004361061004c5760003560e01c806304c07569146100515780635852cc0c146100815780638548ed11146100b5578063d25d23bd146100d1575b600080fd5b61006b600480360381019061006691906106b9565b6100ef565b6040516100789190610809565b60405180910390f35b61009b600480360381019061009691906106b9565b61033c565b6040516100ac959493929190610884565b60405180910390f35b6100cf60048036038101906100ca9190610a21565b61051a565b005b6100d9610634565b6040516100e69190610adc565b60405180910390f35b6100f7610640565b600080549050821061013e576040517f08c379a000000000000000000000000000000000000000000000000000000000815260040161013590610b43565b60405180910390fd5b6000828154811061015257610151610b63565b5b90600052602060002090600502016040518060a00160405290816000820154815260200160018201805461018590610bc1565b80601f01602080910402602001604051908101604052809291908181526020018280546101b190610bc1565b80156101fe5780601f106101d3576101008083540402835291602001916101fe565b820191906000526020600020905b8154815290600101906020018083116101e157829003601f168201915b505050505081526020016002820154815260200160038201805461022190610bc1565b80601f016020809104026020016040519081016040528092919081815260200182805461024d90610bc1565b801561029a5780601f1061026f5761010080835404028352916020019161029a565b820191906000526020600020905b81548152906001019060200180831161027d57829003601f168201915b505050505081526020016004820180546102b390610bc1565b80601f01602080910402602001604051908101604052809291908181526020018280546102df90610bc1565b801561032c5780601f106103015761010080835404028352916020019161032c565b820191906000526020600020905b81548152906001019060200180831161030f57829003601f168201915b5050505050815250509050919050565b6000818154811061034c57600080fd5b906000526020600020906005020160009150905080600001549080600101805461037590610bc1565b80601f01602080910402602001604051908101604052809291908181526020018280546103a190610bc1565b80156103ee5780601f106103c3576101008083540402835291602001916103ee565b820191906000526020600020905b8154815290600101906020018083116103d157829003601f168201915b50505050509080600201549080600301805461040990610bc1565b80601f016020809104026020016040519081016040528092919081815260200182805461043590610bc1565b80156104825780601f1061045757610100808354040283529160200191610482565b820191906000526020600020905b81548152906001019060200180831161046557829003601f168201915b50505050509080600401805461049790610bc1565b80601f01602080910402602001604051908101604052809291908181526020018280546104c390610bc1565b80156105105780601f106104e557610100808354040283529160200191610510565b820191906000526020600020905b8154815290600101906020018083116104f357829003601f168201915b5050505050905085565b60006040518060a0016040528060016000805490506105399190610c21565b815260200186815260200185815260200184815260200183815250905060008190806001815401808255809150506001900390600052602060002090600502016000909190919091506000820151816000015560208201518160010190816105a19190610e01565b506040820151816002015560608201518160030190816105c19190610e01565b5060808201518160040190816105d79190610e01565b5050507f09ba7d20c416838f34bcbf35fd81c63486032f3b8cf5af6261bf4ee7b64a258381600001518260200151836040015184606001518560800151604051610625959493929190610884565b60405180910390a15050505050565b60008080549050905090565b6040518060a0016040528060008152602001606081526020016000815260200160608152602001606081525090565b6000604051905090565b600080fd5b600080fd5b6000819050919050565b61069681610683565b81146106a157600080fd5b50565b6000813590506106b38161068d565b92915050565b6000602082840312156106cf576106ce610679565b5b60006106dd848285016106a4565b91505092915050565b6106ef81610683565b82525050565b600081519050919050565b600082825260208201905092915050565b60005b8381101561072f578082015181840152602081019050610714565b60008484015250505050565b6000601f19601f8301169050919050565b6000610757826106f5565b6107618185610700565b9350610771818560208601610711565b61077a8161073b565b840191505092915050565b600060a08301600083015161079d60008601826106e6565b50602083015184820360208601526107b5828261074c565b91505060408301516107ca60408601826106e6565b50606083015184820360608601526107e2828261074c565b915050608083015184820360808601526107fc828261074c565b9150508091505092915050565b600060208201905081810360008301526108238184610785565b905092915050565b61083481610683565b82525050565b600082825260208201905092915050565b6000610856826106f5565b610860818561083a565b9350610870818560208601610711565b6108798161073b565b840191505092915050565b600060a082019050610899600083018861082b565b81810360208301526108ab818761084b565b90506108ba604083018661082b565b81810360608301526108cc818561084b565b905081810360808301526108e0818461084b565b90509695505050505050565b600080fd5b600080fd5b7f4e487b7100000000000000000000000000000000000000000000000000000000600052604160045260246000fd5b61092e8261073b565b810181811067ffffffffffffffff8211171561094d5761094c6108f6565b5b80604052505050565b600061096061066f565b905061096c8282610925565b919050565b600067ffffffffffffffff82111561098c5761098b6108f6565b5b6109958261073b565b9050602081019050919050565b82818337600083830152505050565b60006109c46109bf84610971565b610956565b9050828152602081018484840111156109e0576109df6108f1565b5b6109eb8482856109a2565b509392505050565b600082601f830112610a0857610a076108ec565b5b8135610a188482602086016109b1565b91505092915050565b60008060008060808587031215610a3b57610a3a610679565b5b600085013567ffffffffffffffff811115610a5957610a5861067e565b5b610a65878288016109f3565b9450506020610a76878288016106a4565b935050604085013567ffffffffffffffff811115610a9757610a9661067e565b5b610aa3878288016109f3565b925050606085013567ffffffffffffffff811115610ac457610ac361067e565b5b610ad0878288016109f3565b91505092959194509250565b6000602082019050610af1600083018461082b565b92915050565b7f496e646578206f7574206f6620626f756e647300000000000000000000000000600082015250565b6000610b2d60138361083a565b9150610b3882610af7565b602082019050919050565b60006020820190508181036000830152610b5c81610b20565b9050919050565b7f4e487b7100000000000000000000000000000000000000000000000000000000600052603260045260246000fd5b7f4e487b7100000000000000000000000000000000000000000000000000000000600052602260045260246000fd5b60006002820490506001821680610bd957607f821691505b602082108103610bec57610beb610b92565b5b50919050565b7f4e487b7100000000000000000000000000000000000000000000000000000000600052601160045260246000fd5b6000610c2c82610683565b9150610c3783610683565b9250828201905080821115610c4f57610c4e610bf2565b5b92915050565b60008190508160005260206000209050919050565b60006020601f8301049050919050565b600082821b905092915050565b600060088302610cb77fffffffffffffffffffffffffffffffffffffffffffffffffffffffffffffffff82610c7a565b610cc18683610c7a565b95508019841693508086168417925050509392505050565b6000819050919050565b6000610cfe610cf9610cf484610683565b610cd9565b610683565b9050919050565b6000819050919050565b610d1883610ce3565b610d2c610d2482610d05565b848454610c87565b825550505050565b600090565b610d41610d34565b610d4c818484610d0f565b505050565b5b81811015610d7057610d65600082610d39565b600181019050610d52565b5050565b601f821115610db557610d8681610c55565b610d8f84610c6a565b81016020851015610d9e578190505b610db2610daa85610c6a565b830182610d51565b50505b505050565b600082821c905092915050565b6000610dd860001984600802610dba565b1980831691505092915050565b6000610df18383610dc7565b9150826002028217905092915050565b610e0a826106f5565b67ffffffffffffffff811115610e2357610e226108f6565b5b610e2d8254610bc1565b610e38828285610d74565b600060209050601f831160018114610e6b5760008415610e59578287015190505b610e638582610de5565b865550610ecb565b601f198416610e7986610c55565b60005b82811015610ea157848901518255600182019150602085019450602081019050610e7c565b86831015610ebe5784890151610eba601f891682610dc7565b8355505b6001600288020188555050505b50505050505056fea2646970667358221220d496465ee3f1a063b7e5de7bb13d3f73da7a6887881b1bcf04520392bcfe20b464736f6c63430008180033",
  "linkReferences": {},
  "deployedLinkReferences": {}
}